{
  "contractName": "Exchange",
  "abi": [
    {
      "inputs": [
        {
          "internalType": "address",
          "name": "_feeAccount",
          "type": "address"
        },
        {
          "internalType": "uint256",
          "name": "_feePercent",
          "type": "uint256"
        }
      ],
      "payable": false,
      "stateMutability": "nonpayable",
      "type": "constructor"
    },
    {
      "anonymous": false,
      "inputs": [
        {
          "indexed": false,
          "internalType": "uint256",
          "name": "id",
          "type": "uint256"
        },
        {
          "indexed": false,
          "internalType": "address",
          "name": "user",
          "type": "address"
        },
        {
          "indexed": true,
          "internalType": "address",
          "name": "tokenGet",
          "type": "address"
        },
        {
          "indexed": false,
          "internalType": "uint256",
          "name": "amountGet",
          "type": "uint256"
        },
        {
          "indexed": true,
          "internalType": "address",
          "name": "tokenGive",
          "type": "address"
        },
        {
          "indexed": false,
          "internalType": "uint256",
          "name": "amountGive",
          "type": "uint256"
        },
        {
          "indexed": false,
          "internalType": "uint256",
          "name": "timestamp",
          "type": "uint256"
        }
      ],
      "name": "Cancel",
      "type": "event"
    },
    {
      "anonymous": false,
      "inputs": [
        {
          "indexed": true,
          "internalType": "address",
          "name": "token",
          "type": "address"
        },
        {
          "indexed": true,
          "internalType": "address",
          "name": "user",
          "type": "address"
        },
        {
          "indexed": false,
          "internalType": "uint256",
          "name": "amount",
          "type": "uint256"
        },
        {
          "indexed": false,
          "internalType": "uint256",
          "name": "balance",
          "type": "uint256"
        }
      ],
      "name": "Deposit",
      "type": "event"
    },
    {
      "anonymous": false,
      "inputs": [
        {
          "indexed": false,
          "internalType": "uint256",
          "name": "id",
          "type": "uint256"
        },
        {
          "indexed": false,
          "internalType": "address",
          "name": "user",
          "type": "address"
        },
        {
          "indexed": true,
          "internalType": "address",
          "name": "tokenGet",
          "type": "address"
        },
        {
          "indexed": false,
          "internalType": "uint256",
          "name": "amountGet",
          "type": "uint256"
        },
        {
          "indexed": true,
          "internalType": "address",
          "name": "tokenGive",
          "type": "address"
        },
        {
          "indexed": false,
          "internalType": "uint256",
          "name": "amountGive",
          "type": "uint256"
        },
        {
          "indexed": false,
          "internalType": "uint256",
          "name": "timestamp",
          "type": "uint256"
        }
      ],
      "name": "Order",
      "type": "event"
    },
    {
      "anonymous": false,
      "inputs": [
        {
          "indexed": true,
          "internalType": "address",
          "name": "tokenAddress",
          "type": "address"
        },
        {
          "indexed": false,
          "internalType": "string",
          "name": "name",
          "type": "string"
        },
        {
          "indexed": false,
          "internalType": "string",
          "name": "symbol",
          "type": "string"
        },
        {
          "indexed": false,
          "internalType": "uint8",
          "name": "decimals",
          "type": "uint8"
        }
      ],
      "name": "TokenAdded",
      "type": "event"
    },
    {
      "anonymous": false,
      "inputs": [
        {
          "indexed": true,
          "internalType": "address",
          "name": "tokenAddress",
          "type": "address"
        }
      ],
      "name": "TokenRemoved",
      "type": "event"
    },
    {
      "anonymous": false,
      "inputs": [
        {
          "indexed": false,
          "internalType": "uint256",
          "name": "id",
          "type": "uint256"
        },
        {
          "indexed": false,
          "internalType": "address",
          "name": "user",
          "type": "address"
        },
        {
          "indexed": true,
          "internalType": "address",
          "name": "tokenGet",
          "type": "address"
        },
        {
          "indexed": false,
          "internalType": "uint256",
          "name": "amountGet",
          "type": "uint256"
        },
        {
          "indexed": true,
          "internalType": "address",
          "name": "tokenGive",
          "type": "address"
        },
        {
          "indexed": false,
          "internalType": "uint256",
          "name": "amountGive",
          "type": "uint256"
        },
        {
          "indexed": false,
          "internalType": "address",
          "name": "userFill",
          "type": "address"
        },
        {
          "indexed": false,
          "internalType": "uint256",
          "name": "timestamp",
          "type": "uint256"
        }
      ],
      "name": "Trade",
      "type": "event"
    },
    {
      "anonymous": false,
      "inputs": [
        {
          "indexed": true,
          "internalType": "address",
          "name": "token",
          "type": "address"
        },
        {
          "indexed": true,
          "internalType": "address",
          "name": "user",
          "type": "address"
        },
        {
          "indexed": false,
          "internalType": "uint256",
          "name": "amount",
          "type": "uint256"
        },
        {
          "indexed": false,
          "internalType": "uint256",
          "name": "balance",
          "type": "uint256"
        }
      ],
      "name": "Withdraw",
      "type": "event"
    },
    {
      "payable": false,
      "stateMutability": "nonpayable",
      "type": "fallback"
    },
    {
      "constant": true,
      "inputs": [],
      "name": "feeAccount",
      "outputs": [
        {
          "internalType": "address",
          "name": "",
          "type": "address"
        }
      ],
      "payable": false,
      "stateMutability": "view",
      "type": "function"
    },
    {
      "constant": true,
      "inputs": [],
      "name": "feePercent",
      "outputs": [
        {
          "internalType": "uint256",
          "name": "",
          "type": "uint256"
        }
      ],
      "payable": false,
      "stateMutability": "view",
      "type": "function"
    },
    {
      "constant": true,
      "inputs": [
        {
          "internalType": "uint256",
          "name": "",
          "type": "uint256"
        }
      ],
      "name": "orderCancelled",
      "outputs": [
        {
          "internalType": "bool",
          "name": "",
          "type": "bool"
        }
      ],
      "payable": false,
      "stateMutability": "view",
      "type": "function"
    },
    {
      "constant": true,
      "inputs": [],
      "name": "orderCount",
      "outputs": [
        {
          "internalType": "uint256",
          "name": "",
          "type": "uint256"
        }
      ],
      "payable": false,
      "stateMutability": "view",
      "type": "function"
    },
    {
      "constant": true,
      "inputs": [
        {
          "internalType": "uint256",
          "name": "",
          "type": "uint256"
        }
      ],
      "name": "orderFilled",
      "outputs": [
        {
          "internalType": "bool",
          "name": "",
          "type": "bool"
        }
      ],
      "payable": false,
      "stateMutability": "view",
      "type": "function"
    },
    {
      "constant": true,
      "inputs": [
        {
          "internalType": "uint256",
          "name": "",
          "type": "uint256"
        }
      ],
      "name": "orders",
      "outputs": [
        {
          "internalType": "uint256",
          "name": "id",
          "type": "uint256"
        },
        {
          "internalType": "address",
          "name": "user",
          "type": "address"
        },
        {
          "internalType": "address",
          "name": "tokenGet",
          "type": "address"
        },
        {
          "internalType": "uint256",
          "name": "amountGet",
          "type": "uint256"
        },
        {
          "internalType": "address",
          "name": "tokenGive",
          "type": "address"
        },
        {
          "internalType": "uint256",
          "name": "amountGive",
          "type": "uint256"
        },
        {
          "internalType": "uint256",
          "name": "timestamp",
          "type": "uint256"
        }
      ],
      "payable": false,
      "stateMutability": "view",
      "type": "function"
    },
    {
      "constant": true,
      "inputs": [
        {
          "internalType": "address",
          "name": "",
          "type": "address"
        },
        {
          "internalType": "address",
          "name": "",
          "type": "address"
        }
      ],
      "name": "tokens",
      "outputs": [
        {
          "internalType": "uint256",
          "name": "",
          "type": "uint256"
        }
      ],
      "payable": false,
      "stateMutability": "view",
      "type": "function"
    },
    {
      "constant": false,
      "inputs": [
        {
          "internalType": "address",
          "name": "_tokenAddress",
          "type": "address"
        },
        {
          "internalType": "string",
          "name": "_name",
          "type": "string"
        },
        {
          "internalType": "string",
          "name": "_symbol",
          "type": "string"
        },
        {
          "internalType": "uint8",
          "name": "_decimals",
          "type": "uint8"
        }
      ],
      "name": "addToken",
      "outputs": [
        {
          "internalType": "address",
          "name": "tokenAddress",
          "type": "address"
        }
      ],
      "payable": false,
      "stateMutability": "nonpayable",
      "type": "function"
    },
    {
      "constant": false,
      "inputs": [
        {
          "internalType": "address",
          "name": "_tokenAddress",
          "type": "address"
        }
      ],
      "name": "removeToken",
      "outputs": [],
      "payable": false,
      "stateMutability": "nonpayable",
      "type": "function"
    },
    {
      "constant": false,
      "inputs": [],
      "name": "depositEther",
      "outputs": [],
      "payable": true,
      "stateMutability": "payable",
      "type": "function"
    },
    {
      "constant": false,
      "inputs": [
        {
          "internalType": "uint256",
          "name": "_amount",
          "type": "uint256"
        }
      ],
      "name": "withdrawEther",
      "outputs": [],
      "payable": false,
      "stateMutability": "nonpayable",
      "type": "function"
    },
    {
      "constant": false,
      "inputs": [
        {
          "internalType": "address",
          "name": "_token",
          "type": "address"
        },
        {
          "internalType": "uint256",
          "name": "_amount",
          "type": "uint256"
        }
      ],
      "name": "depositToken",
      "outputs": [],
      "payable": false,
      "stateMutability": "nonpayable",
      "type": "function"
    },
    {
      "constant": false,
      "inputs": [
        {
          "internalType": "address",
          "name": "_token",
          "type": "address"
        },
        {
          "internalType": "uint256",
          "name": "_amount",
          "type": "uint256"
        }
      ],
      "name": "withdrawToken",
      "outputs": [],
      "payable": false,
      "stateMutability": "nonpayable",
      "type": "function"
    },
    {
      "constant": true,
      "inputs": [
        {
          "internalType": "address",
          "name": "_token",
          "type": "address"
        },
        {
          "internalType": "address",
          "name": "_user",
          "type": "address"
        }
      ],
      "name": "balanceOf",
      "outputs": [
        {
          "internalType": "uint256",
          "name": "",
          "type": "uint256"
        }
      ],
      "payable": false,
      "stateMutability": "view",
      "type": "function"
    },
    {
      "constant": false,
      "inputs": [
        {
          "internalType": "address",
          "name": "_tokenGet",
          "type": "address"
        },
        {
          "internalType": "uint256",
          "name": "_amountGet",
          "type": "uint256"
        },
        {
          "internalType": "address",
          "name": "_tokenGive",
          "type": "address"
        },
        {
          "internalType": "uint256",
          "name": "_amountGive",
          "type": "uint256"
        }
      ],
      "name": "makeOrder",
      "outputs": [],
      "payable": false,
      "stateMutability": "nonpayable",
      "type": "function"
    },
    {
      "constant": false,
      "inputs": [
        {
          "internalType": "uint256",
          "name": "_id",
          "type": "uint256"
        }
      ],
      "name": "cancelOrder",
      "outputs": [],
      "payable": false,
      "stateMutability": "nonpayable",
      "type": "function"
    },
    {
      "constant": false,
      "inputs": [
        {
          "internalType": "uint256",
          "name": "_id",
          "type": "uint256"
        }
      ],
      "name": "fillOrder",
      "outputs": [],
      "payable": false,
      "stateMutability": "nonpayable",
      "type": "function"
    }
  ],
  "bytecode": "0x608060405234801561001057600080fd5b506040516114233803806114238339818101604052604081101561003357600080fd5b508051602090910151600080546001600160a01b0319166001600160a01b039093169290921782556001556113b590819061006e90396000f3fe6080604052600436106100fe5760003560e01c806367b830ad116100955780639a5c90aa116100645780639a5c90aa146104395780639e281a9814610480578063a85c38ef146104b9578063e9c189661461052b578063f7888aec14610555576100fe565b806367b830ad146102a35780637fd6f15c146102cd5780638e404e9c146102e257806398ea5fca14610431576100fe565b8063508493bc116100d1578063508493bc146101da578063514fcac7146102155780635fa7b5841461023f57806365e17c9d14610272576100fe565b80632453ffa814610110578063338b5dea146101375780633bed33ce146101725780634a93e0da1461019c575b34801561010a57600080fd5b50600080fd5b34801561011c57600080fd5b50610125610590565b60408051918252519081900360200190f35b34801561014357600080fd5b506101706004803603604081101561015a57600080fd5b506001600160a01b038135169060200135610596565b005b34801561017e57600080fd5b506101706004803603602081101561019557600080fd5b50356106cd565b3480156101a857600080fd5b506101c6600480360360208110156101bf57600080fd5b50356107c7565b604080519115158252519081900360200190f35b3480156101e657600080fd5b50610125600480360360408110156101fd57600080fd5b506001600160a01b03813581169160200135166107dc565b34801561022157600080fd5b506101706004803603602081101561023857600080fd5b50356107f9565b34801561024b57600080fd5b506101706004803603602081101561026257600080fd5b50356001600160a01b03166108bf565b34801561027e57600080fd5b506102876108f6565b604080516001600160a01b039092168252519081900360200190f35b3480156102af57600080fd5b50610170600480360360208110156102c657600080fd5b5035610905565b3480156102d957600080fd5b5061012561098b565b3480156102ee57600080fd5b506102876004803603608081101561030557600080fd5b6001600160a01b03823516919081019060408101602082013564010000000081111561033057600080fd5b82018360208201111561034257600080fd5b8035906020019184600183028401116401000000008311171561036457600080fd5b91908080601f01602080910402602001604051908101604052809392919081815260200183838082843760009201919091525092959493602081019350359150506401000000008111156103b757600080fd5b8201836020820111156103c957600080fd5b803590602001918460018302840111640100000000831117156103eb57600080fd5b91908080601f0160208091040260200160405190810160405280939291908181526020018383808284376000920191909152509295505050903560ff1691506109919050565b610170610ab4565b34801561044557600080fd5b506101706004803603608081101561045c57600080fd5b506001600160a01b0381358116916020810135916040820135169060600135610b42565b34801561048c57600080fd5b50610170600480360360408110156104a357600080fd5b506001600160a01b038135169060200135610cfe565b3480156104c557600080fd5b506104e3600480360360208110156104dc57600080fd5b5035610ddb565b604080519788526001600160a01b0396871660208901529486168786015260608701939093529316608085015260a084019290925260c0830191909152519081900360e00190f35b34801561053757600080fd5b506101c66004803603602081101561054e57600080fd5b5035610e27565b34801561056157600080fd5b506101256004803603604081101561057857600080fd5b506001600160a01b0381358116916020013516610e3c565b60045481565b6001600160a01b0382166105a957600080fd5b604080516323b872dd60e01b81523360048201523060248201526044810183905290516001600160a01b038416916323b872dd9160648083019260209291908290030181600087803b1580156105fe57600080fd5b505af1158015610612573d6000803e3d6000fd5b505050506040513d602081101561062857600080fd5b505161063357600080fd5b6001600160a01b0382166000908152600260209081526040808320338452909152902054610667908263ffffffff610e6916565b6001600160a01b03831660008181526002602090815260408083203380855290835292819020859055805186815291820194909452835191937fdcbc1c05240f31ff3ad067ef1ee35ce4997762752e3a095284754544f4c709d792918290030190a35050565b33600090815260008051602061134083398151915260205260409020548111156106f657600080fd5b3360009081526000805160206113408339815191526020526040902054610723908263ffffffff610eca16565b3360008181526000805160206113408339815191526020526040808220939093559151909183156108fc02918491818181858888f1935050505015801561076e573d6000803e3d6000fd5b50336000818152600080516020611340833981519152602090815260408083205481518681529283015280517ff341246adaac6f497bc2a656f546ab9e182111d630394f0c57c710a59a2cb5679281900390910190a350565b60066020526000908152604090205460ff1681565b600260209081526000928352604080842090915290825290205481565b600081815260036020526040902060018101546001600160a01b0316331461082057600080fd5b600082815260056020818152604092839020805460ff191660019081179091556004850154600286015486549287015460038801549588015487519485526001600160a01b039182169585019590955283870195909552606083019390935242608083015293519383169391909216917f77de1da0be5f2d3b110d05c6694e5c4ff2d9da7cd23d84353ecf78c7b5acec61919081900360a00190a35050565b6040516001600160a01b038216907f4c910b69fe65a61f7531b9c5042b2329ca7179c77290aa7e2eb3afa3c8511fd390600090a250565b6000546001600160a01b031681565b60008111801561091757506004548111155b61092057600080fd5b60008181526005602052604090205460ff161561093c57600080fd5b60008181526006602052604090205460ff161561095857600080fd5b600081815260036020526040902061096f81610f0c565b506000908152600660205260409020805460ff19166001179055565b60015481565b6000846001600160a01b03167f86af02581649a58dead45b4dce5cd237cee12c6cb5d9d7e9990bd98d93ba4eb08585856040518080602001806020018460ff1660ff168152602001838103835286818151815260200191508051906020019080838360005b83811015610a0e5781810151838201526020016109f6565b50505050905090810190601f168015610a3b5780820380516001836020036101000a031916815260200191505b50838103825285518152855160209182019187019080838360005b83811015610a6e578181015183820152602001610a56565b50505050905090810190601f168015610a9b5780820380516001836020036101000a031916815260200191505b509550505050505060405180910390a250929392505050565b3360009081526000805160206113408339815191526020526040902054610ae1903463ffffffff610e6916565b336000818152600080516020611340833981519152602090815260408083208590558051348152918201949094528351929391927fdcbc1c05240f31ff3ad067ef1ee35ce4997762752e3a095284754544f4c709d7929181900390910190a3565b600454610b5690600163ffffffff610e6916565b60048190555060004290506040518060e001604052806004548152602001336001600160a01b03168152602001866001600160a01b03168152602001858152602001846001600160a01b03168152602001838152602001828152506003600060045481526020019081526020016000206000820151816000015560208201518160010160006101000a8154816001600160a01b0302191690836001600160a01b0316021790555060408201518160020160006101000a8154816001600160a01b0302191690836001600160a01b031602179055506060820151816003015560808201518160040160006101000a8154816001600160a01b0302191690836001600160a01b0316021790555060a0820151816005015560c08201518160060155905050826001600160a01b0316856001600160a01b03167f9d33853d43e3607b4cc01fdc78338ff2dca6fef7db9232dae6d3eb55fbc3b1096004543388878760405180868152602001856001600160a01b03166001600160a01b031681526020018481526020018381526020018281526020019550505050505060405180910390a35050505050565b6001600160a01b038216610d1157600080fd5b6001600160a01b0382166000908152600260209081526040808320338452909152902054811115610d4157600080fd5b6001600160a01b0382166000908152600260209081526040808320338452909152902054610d75908263ffffffff610eca16565b6001600160a01b03831660008181526002602090815260408083203380855290835292819020859055805186815291820194909452835191937ff341246adaac6f497bc2a656f546ab9e182111d630394f0c57c710a59a2cb56792918290030190a35050565b6003602081905260009182526040909120805460018201546002830154938301546004840154600585015460069095015493956001600160a01b03938416959084169492939091169187565b60056020526000908152604090205460ff1681565b6001600160a01b038083166000908152600260209081526040808320938516835292905220545b92915050565b600082820183811015610ec3576040805162461bcd60e51b815260206004820152601b60248201527f536166654d6174683a206164646974696f6e206f766572666c6f770000000000604482015290519081900360640190fd5b9392505050565b6000610ec383836040518060400160405280601e81526020017f536166654d6174683a207375627472616374696f6e206f766572666c6f7700008152506111ad565b6000610f386064610f2c600154856003015461124490919063ffffffff16565b9063ffffffff61129d16565b9050610f86610f54828460030154610e6990919063ffffffff16565b6002848101546001600160a01b031660009081526020918252604080822033835290925220549063ffffffff610eca16565b600283810180546001600160a01b03908116600090815260208481526040808320338452825280832096909655600388015493548316825293845284812060018801549092168152925291902054610fe39163ffffffff610e6916565b600283810180546001600160a01b0390811660009081526020848152604080832060018a015485168452825280832096909655925482168152928252838320835490911683529052205461103d908263ffffffff610e6916565b6002838101546001600160a01b039081166000908152602083815260408083208354851684528252808320959095556005870154600488015484168352938152848220600188015490931682529190915291909120546110a29163ffffffff610eca16565b6004830180546001600160a01b03908116600090815260026020818152604080842060018a015486168552825280842096909655600588015494549093168252825283812033825290915291909120546111019163ffffffff610e6916565b6004830180546001600160a01b0390811660009081526002602081815260408084203380865290835293819020969096559354908701548754600189015460038a015460058b015489519384529187169783019790975281880196909652606081019590955260808501929092524260a08501529351938216939116917f0dddf4182dc0fc1a311cb75f049c97403c6b8a99cf6b2229a36e7c526acb3f81919081900360c00190a35050565b6000818484111561123c5760405162461bcd60e51b81526004018080602001828103825283818151815260200191508051906020019080838360005b838110156112015781810151838201526020016111e9565b50505050905090810190601f16801561122e5780820380516001836020036101000a031916815260200191505b509250505060405180910390fd5b505050900390565b60008261125357506000610e63565b8282028284828161126057fe5b0414610ec35760405162461bcd60e51b81526004018080602001828103825260218152602001806113606021913960400191505060405180910390fd5b6000610ec383836040518060400160405280601a81526020017f536166654d6174683a206469766973696f6e206279207a65726f000000000000815250600081836113295760405162461bcd60e51b81526020600482018181528351602484015283519092839260449091019190850190808383600083156112015781810151838201526020016111e9565b50600083858161133557fe5b049594505050505056feac33ff75c19e70fe83507db0d683fd3465c996598dc972688b7ace676c89077b536166654d6174683a206d756c7469706c69636174696f6e206f766572666c6f77a265627a7a72315820e6b0ec4ce091935bfb3f7764ae2308f9026ee2f7fac19d5a90b9ae8b2c5e1f7f64736f6c63430005100032",
  "source": "pragma solidity ^0.5.0;\n\nimport \"@openzeppelin/contracts/math/SafeMath.sol\";\nimport \"@openzeppelin/contracts/token/ERC20/ERC20.sol\";\n\ncontract Exchange {\n\tusing SafeMath for uint;\n\n\taddress public feeAccount;\n\tuint256 public feePercent;\n\taddress constant ETHER = address(0); // allows storage of ether in blank address in token mapping\n\n\tmapping(address => mapping(address => uint256)) public tokens;\n\tmapping(uint256 => _Order) public orders;\n\tuint256 public orderCount;\n\tmapping(uint256 => bool) public orderCancelled;\n\tmapping(uint256 => bool) public orderFilled;\n\n\tstruct _Order {\n\t\tuint256 id;\n\t\taddress user;\n\t\taddress tokenGet;\n\t\tuint256 amountGet;\n\t\taddress tokenGive;\n\t\tuint256 amountGive;\n\t\tuint256 timestamp;\n\t}\n\t\n\tevent TokenAdded(address indexed tokenAddress, string name, string symbol, uint8 decimals);\n\tevent TokenRemoved(address indexed tokenAddress);\n\tevent Deposit(address indexed token, address indexed user, uint256 amount, uint256 balance);\n\tevent Withdraw(address indexed token, address indexed user, uint256 amount, uint256 balance);\n\tevent Order(uint256 id, address user, address indexed tokenGet, uint256 amountGet, address indexed tokenGive, uint256 amountGive, uint256 timestamp);\n\tevent Cancel(uint256 id, address user, address indexed tokenGet, uint256 amountGet, address indexed tokenGive, uint256 amountGive, uint256 timestamp);\n\tevent Trade(uint256 id, address user, address indexed tokenGet, uint256 amountGet, address indexed tokenGive, uint256 amountGive, address userFill, uint256 timestamp);\n\t\n\tconstructor (address _feeAccount, uint256 _feePercent) public {\n\t\tfeeAccount = _feeAccount;\n\t\tfeePercent = _feePercent;\n\t}\n\n\t// reverts if ether is sent directly to exchange\n\tfunction() external {\n\t\trevert();\n\t}\n\n\tfunction addToken(address _tokenAddress, string memory _name, string memory _symbol, uint8 _decimals) public returns (address tokenAddress) {\n\t\temit TokenAdded(_tokenAddress, _name, _symbol, _decimals);\n\t\treturn _tokenAddress;\n\t}\n\n\tfunction removeToken(address _tokenAddress) public {\n\t\temit TokenRemoved(_tokenAddress);\n\t}\n\n\tfunction depositEther() payable public {\n\t\ttokens[ETHER][msg.sender] = tokens[ETHER][msg.sender].add(msg.value);\n\t\temit Deposit(ETHER, msg.sender, msg.value, tokens[ETHER][msg.sender]);\n\t}\n\n\tfunction withdrawEther(uint256 _amount) public {\n\t\trequire(tokens[ETHER][msg.sender] >= _amount);\n\t\ttokens[ETHER][msg.sender] = tokens[ETHER][msg.sender].sub(_amount);\n\t\tmsg.sender.transfer(_amount);\n\t\temit Withdraw(ETHER, msg.sender, _amount, tokens[ETHER][msg.sender]);\n\t}\n\n\tfunction depositToken(address _token, uint256 _amount) public {\n\t\trequire(_token != ETHER);\n\t\trequire(ERC20(_token).transferFrom(msg.sender, address(this), _amount));\n\t\ttokens[_token][msg.sender] = tokens[_token][msg.sender].add(_amount);\n\t\temit Deposit(_token, msg.sender, _amount, tokens[_token][msg.sender]);\n\t}\n\n\tfunction withdrawToken(address _token, uint256 _amount) public {\n\t\trequire(_token != ETHER);\n\t\trequire(tokens[_token][msg.sender] >= _amount);\n\t\ttokens[_token][msg.sender] = tokens[_token][msg.sender].sub(_amount);\n\t\temit Withdraw(_token, msg.sender, _amount, tokens[_token][msg.sender]);\n\t}\n\n\tfunction balanceOf(address _token, address _user) public view returns (uint256) {\n\t\treturn tokens[_token][_user];\n\t}\n\n\tfunction makeOrder(\n\t\taddress _tokenGet,\n\t\tuint256 _amountGet,\n\t\taddress _tokenGive,\n\t\tuint256 _amountGive) public {\n\n\t\torderCount = orderCount.add(1);\n\t\tuint256 _timestamp = now;\n\t\t\n\n\t\torders[orderCount] = _Order(\n\t\t\torderCount, \n\t\t\tmsg.sender, \n\t\t\t_tokenGet, \n\t\t\t_amountGet, \n\t\t\t_tokenGive, \n\t\t\t_amountGive,\n\t\t\t_timestamp);\n\n\t\temit Order(\n\t\t\torderCount, \n\t\t\tmsg.sender, \n\t\t\t_tokenGet, \n\t\t\t_amountGet, \n\t\t\t_tokenGive, \n\t\t\t_amountGive,\n\t\t\t_timestamp);\n\t}\n\n\tfunction cancelOrder(uint256 _id) public {\n\n\t\t_Order storage _order = orders[_id];\n\t\trequire(address(_order.user) == msg.sender);\n\n\t\torderCancelled[_id] = true;\n\n\t\temit Cancel(\n\t\t\t_order.id, \n\t\t\t_order.user, \n\t\t\t_order.tokenGet, \n\t\t\t_order.amountGet, \n\t\t\t_order.tokenGive, \n\t\t\t_order.amountGive,\n\t\t\tnow);\n\t}\n\n\tfunction fillOrder(uint256 _id) public {\n\t\trequire(_id > 0 && _id <= orderCount);\n\t\trequire(!orderCancelled[_id]);\n\t\trequire(!orderFilled[_id]);\n\n\t\t_Order storage _order = orders[_id];\n\t\t_trade(_order);\n\t\torderFilled[_id] = true;\n\t}\n\n\tfunction _trade(_Order storage _order) internal {\n\t\tuint256 _feeAmount = _order.amountGet.mul(feePercent).div(100);\n\n\t\ttokens[_order.tokenGet][msg.sender] = tokens[_order.tokenGet][msg.sender].sub(_order.amountGet.add(_feeAmount));\n\t\ttokens[_order.tokenGet][_order.user] = tokens[_order.tokenGet][_order.user].add(_order.amountGet);\n\t\ttokens[_order.tokenGet][feeAccount] = tokens[_order.tokenGet][feeAccount].add(_feeAmount);\n\t\ttokens[_order.tokenGive][_order.user] = tokens[_order.tokenGive][_order.user].sub(_order.amountGive);\n\t\ttokens[_order.tokenGive][msg.sender] = tokens[_order.tokenGive][msg.sender].add(_order.amountGive);\n\n\t\temit Trade(_order.id, _order.user, _order.tokenGet, _order.amountGet, _order.tokenGive, _order.amountGive, msg.sender, now);\n\t}\n}",
  "sourcePath": "/Users/jaco/dev/workspace/ethereum/exchange/src/contracts/Exchange.sol",
  "compiler": {
    "name": "solc",
    "version": "0.5.16+commit.9c3226ce.Emscripten.clang"
  },
  "schemaVersion": "3.0.23",
  "updatedAt": "2020-03-26T12:58:40.690Z",
  "networkType": "ethereum",
  "devdoc": {
    "methods": {}
  },
  "userdoc": {
    "methods": {}
  }
}