{
  "contractName": "Exchange",
  "abi": [
    {
      "inputs": [
        {
          "internalType": "address",
          "name": "_feeAccount",
          "type": "address"
        },
        {
          "internalType": "uint256",
          "name": "_feePercent",
          "type": "uint256"
        }
      ],
      "payable": false,
      "stateMutability": "nonpayable",
      "type": "constructor"
    },
    {
      "anonymous": false,
      "inputs": [
        {
          "indexed": false,
          "internalType": "uint256",
          "name": "id",
          "type": "uint256"
        },
        {
          "indexed": false,
          "internalType": "address",
          "name": "user",
          "type": "address"
        },
        {
          "indexed": true,
          "internalType": "address",
          "name": "tokenGet",
          "type": "address"
        },
        {
          "indexed": false,
          "internalType": "uint256",
          "name": "amountGet",
          "type": "uint256"
        },
        {
          "indexed": true,
          "internalType": "address",
          "name": "tokenGive",
          "type": "address"
        },
        {
          "indexed": false,
          "internalType": "uint256",
          "name": "amountGive",
          "type": "uint256"
        },
        {
          "indexed": false,
          "internalType": "uint256",
          "name": "timestamp",
          "type": "uint256"
        }
      ],
      "name": "Cancel",
      "type": "event"
    },
    {
      "anonymous": false,
      "inputs": [
        {
          "indexed": true,
          "internalType": "address",
          "name": "token",
          "type": "address"
        },
        {
          "indexed": true,
          "internalType": "address",
          "name": "user",
          "type": "address"
        },
        {
          "indexed": false,
          "internalType": "uint256",
          "name": "amount",
          "type": "uint256"
        },
        {
          "indexed": false,
          "internalType": "uint256",
          "name": "balance",
          "type": "uint256"
        }
      ],
      "name": "Deposit",
      "type": "event"
    },
    {
      "anonymous": false,
      "inputs": [
        {
          "indexed": false,
          "internalType": "uint256",
          "name": "id",
          "type": "uint256"
        },
        {
          "indexed": false,
          "internalType": "address",
          "name": "user",
          "type": "address"
        },
        {
          "indexed": true,
          "internalType": "address",
          "name": "tokenGet",
          "type": "address"
        },
        {
          "indexed": false,
          "internalType": "uint256",
          "name": "amountGet",
          "type": "uint256"
        },
        {
          "indexed": true,
          "internalType": "address",
          "name": "tokenGive",
          "type": "address"
        },
        {
          "indexed": false,
          "internalType": "uint256",
          "name": "amountGive",
          "type": "uint256"
        },
        {
          "indexed": false,
          "internalType": "uint256",
          "name": "timestamp",
          "type": "uint256"
        }
      ],
      "name": "Order",
      "type": "event"
    },
    {
      "anonymous": false,
      "inputs": [
        {
          "indexed": true,
          "internalType": "address",
          "name": "tokenAddress",
          "type": "address"
        },
        {
          "indexed": false,
          "internalType": "string",
          "name": "name",
          "type": "string"
        },
        {
          "indexed": false,
          "internalType": "string",
          "name": "symbol",
          "type": "string"
        },
        {
          "indexed": false,
          "internalType": "uint8",
          "name": "decimals",
          "type": "uint8"
        }
      ],
      "name": "TokenAdded",
      "type": "event"
    },
    {
      "anonymous": false,
      "inputs": [
        {
          "indexed": true,
          "internalType": "address",
          "name": "tokenAddress",
          "type": "address"
        }
      ],
      "name": "TokenRemoved",
      "type": "event"
    },
    {
      "anonymous": false,
      "inputs": [
        {
          "indexed": false,
          "internalType": "uint256",
          "name": "id",
          "type": "uint256"
        },
        {
          "indexed": false,
          "internalType": "address",
          "name": "user",
          "type": "address"
        },
        {
          "indexed": true,
          "internalType": "address",
          "name": "tokenGet",
          "type": "address"
        },
        {
          "indexed": false,
          "internalType": "uint256",
          "name": "amountGet",
          "type": "uint256"
        },
        {
          "indexed": true,
          "internalType": "address",
          "name": "tokenGive",
          "type": "address"
        },
        {
          "indexed": false,
          "internalType": "uint256",
          "name": "amountGive",
          "type": "uint256"
        },
        {
          "indexed": false,
          "internalType": "address",
          "name": "userFill",
          "type": "address"
        },
        {
          "indexed": false,
          "internalType": "uint256",
          "name": "timestamp",
          "type": "uint256"
        }
      ],
      "name": "Trade",
      "type": "event"
    },
    {
      "anonymous": false,
      "inputs": [
        {
          "indexed": true,
          "internalType": "address",
          "name": "token",
          "type": "address"
        },
        {
          "indexed": true,
          "internalType": "address",
          "name": "user",
          "type": "address"
        },
        {
          "indexed": false,
          "internalType": "uint256",
          "name": "amount",
          "type": "uint256"
        },
        {
          "indexed": false,
          "internalType": "uint256",
          "name": "balance",
          "type": "uint256"
        }
      ],
      "name": "Withdraw",
      "type": "event"
    },
    {
      "payable": false,
      "stateMutability": "nonpayable",
      "type": "fallback"
    },
    {
      "constant": true,
      "inputs": [],
      "name": "feeAccount",
      "outputs": [
        {
          "internalType": "address",
          "name": "",
          "type": "address"
        }
      ],
      "payable": false,
      "stateMutability": "view",
      "type": "function"
    },
    {
      "constant": true,
      "inputs": [],
      "name": "feePercent",
      "outputs": [
        {
          "internalType": "uint256",
          "name": "",
          "type": "uint256"
        }
      ],
      "payable": false,
      "stateMutability": "view",
      "type": "function"
    },
    {
      "constant": true,
      "inputs": [
        {
          "internalType": "uint256",
          "name": "",
          "type": "uint256"
        }
      ],
      "name": "orderCancelled",
      "outputs": [
        {
          "internalType": "bool",
          "name": "",
          "type": "bool"
        }
      ],
      "payable": false,
      "stateMutability": "view",
      "type": "function"
    },
    {
      "constant": true,
      "inputs": [],
      "name": "orderCount",
      "outputs": [
        {
          "internalType": "uint256",
          "name": "",
          "type": "uint256"
        }
      ],
      "payable": false,
      "stateMutability": "view",
      "type": "function"
    },
    {
      "constant": true,
      "inputs": [
        {
          "internalType": "uint256",
          "name": "",
          "type": "uint256"
        }
      ],
      "name": "orderFilled",
      "outputs": [
        {
          "internalType": "bool",
          "name": "",
          "type": "bool"
        }
      ],
      "payable": false,
      "stateMutability": "view",
      "type": "function"
    },
    {
      "constant": true,
      "inputs": [
        {
          "internalType": "uint256",
          "name": "",
          "type": "uint256"
        }
      ],
      "name": "orders",
      "outputs": [
        {
          "internalType": "uint256",
          "name": "id",
          "type": "uint256"
        },
        {
          "internalType": "address",
          "name": "user",
          "type": "address"
        },
        {
          "internalType": "address",
          "name": "tokenGet",
          "type": "address"
        },
        {
          "internalType": "uint256",
          "name": "amountGet",
          "type": "uint256"
        },
        {
          "internalType": "address",
          "name": "tokenGive",
          "type": "address"
        },
        {
          "internalType": "uint256",
          "name": "amountGive",
          "type": "uint256"
        },
        {
          "internalType": "uint256",
          "name": "timestamp",
          "type": "uint256"
        }
      ],
      "payable": false,
      "stateMutability": "view",
      "type": "function"
    },
    {
      "constant": true,
      "inputs": [
        {
          "internalType": "address",
          "name": "",
          "type": "address"
        },
        {
          "internalType": "address",
          "name": "",
          "type": "address"
        }
      ],
      "name": "tokens",
      "outputs": [
        {
          "internalType": "uint256",
          "name": "",
          "type": "uint256"
        }
      ],
      "payable": false,
      "stateMutability": "view",
      "type": "function"
    },
    {
      "constant": false,
      "inputs": [
        {
          "internalType": "address",
          "name": "_tokenAddress",
          "type": "address"
        },
        {
          "internalType": "string",
          "name": "_name",
          "type": "string"
        },
        {
          "internalType": "string",
          "name": "_symbol",
          "type": "string"
        },
        {
          "internalType": "uint8",
          "name": "_decimals",
          "type": "uint8"
        }
      ],
      "name": "addToken",
      "outputs": [
        {
          "internalType": "address",
          "name": "tokenAddress",
          "type": "address"
        }
      ],
      "payable": false,
      "stateMutability": "nonpayable",
      "type": "function"
    },
    {
      "constant": false,
      "inputs": [
        {
          "internalType": "address",
          "name": "_tokenAddress",
          "type": "address"
        }
      ],
      "name": "removeToken",
      "outputs": [],
      "payable": false,
      "stateMutability": "nonpayable",
      "type": "function"
    },
    {
      "constant": false,
      "inputs": [],
      "name": "depositEther",
      "outputs": [],
      "payable": true,
      "stateMutability": "payable",
      "type": "function"
    },
    {
      "constant": false,
      "inputs": [
        {
          "internalType": "uint256",
          "name": "_amount",
          "type": "uint256"
        }
      ],
      "name": "withdrawEther",
      "outputs": [],
      "payable": false,
      "stateMutability": "nonpayable",
      "type": "function"
    },
    {
      "constant": false,
      "inputs": [
        {
          "internalType": "address",
          "name": "_token",
          "type": "address"
        },
        {
          "internalType": "uint256",
          "name": "_amount",
          "type": "uint256"
        }
      ],
      "name": "depositToken",
      "outputs": [],
      "payable": false,
      "stateMutability": "nonpayable",
      "type": "function"
    },
    {
      "constant": false,
      "inputs": [
        {
          "internalType": "address",
          "name": "_token",
          "type": "address"
        },
        {
          "internalType": "uint256",
          "name": "_amount",
          "type": "uint256"
        }
      ],
      "name": "withdrawToken",
      "outputs": [],
      "payable": false,
      "stateMutability": "nonpayable",
      "type": "function"
    },
    {
      "constant": true,
      "inputs": [
        {
          "internalType": "address",
          "name": "_token",
          "type": "address"
        },
        {
          "internalType": "address",
          "name": "_user",
          "type": "address"
        }
      ],
      "name": "balanceOf",
      "outputs": [
        {
          "internalType": "uint256",
          "name": "",
          "type": "uint256"
        }
      ],
      "payable": false,
      "stateMutability": "view",
      "type": "function"
    },
    {
      "constant": true,
      "inputs": [
        {
          "internalType": "address",
          "name": "_token",
          "type": "address"
        },
        {
          "internalType": "address",
          "name": "_user",
          "type": "address"
        }
      ],
      "name": "orderTotal",
      "outputs": [
        {
          "internalType": "uint256",
          "name": "",
          "type": "uint256"
        }
      ],
      "payable": false,
      "stateMutability": "view",
      "type": "function"
    },
    {
      "constant": false,
      "inputs": [
        {
          "internalType": "address",
          "name": "_tokenGet",
          "type": "address"
        },
        {
          "internalType": "uint256",
          "name": "_amountGet",
          "type": "uint256"
        },
        {
          "internalType": "address",
          "name": "_tokenGive",
          "type": "address"
        },
        {
          "internalType": "uint256",
          "name": "_amountGive",
          "type": "uint256"
        }
      ],
      "name": "makeOrder",
      "outputs": [],
      "payable": false,
      "stateMutability": "nonpayable",
      "type": "function"
    },
    {
      "constant": false,
      "inputs": [
        {
          "internalType": "uint256",
          "name": "_id",
          "type": "uint256"
        }
      ],
      "name": "cancelOrder",
      "outputs": [],
      "payable": false,
      "stateMutability": "nonpayable",
      "type": "function"
    },
    {
      "constant": false,
      "inputs": [
        {
          "internalType": "uint256",
          "name": "_id",
          "type": "uint256"
        }
      ],
      "name": "fillOrder",
      "outputs": [],
      "payable": false,
      "stateMutability": "nonpayable",
      "type": "function"
    }
  ],
  "bytecode": "0x608060405234801561001057600080fd5b5060405161168f38038061168f8339818101604052604081101561003357600080fd5b508051602090910151600080546001600160a01b0319166001600160a01b0390931692909217825560015561162190819061006e90396000f3fe6080604052600436106101095760003560e01c806367b830ad116100955780639a5c90aa116100645780639a5c90aa1461047f5780639e281a98146104c6578063a85c38ef146104ff578063e9c1896614610571578063f7888aec1461059b57610109565b806367b830ad146102e95780637fd6f15c146103135780638e404e9c1461032857806398ea5fca1461047757610109565b80634aff4d37116100dc5780634aff4d37146101e5578063508493bc14610220578063514fcac71461025b5780635fa7b5841461028557806365e17c9d146102b857610109565b80632453ffa81461011b578063338b5dea146101425780633bed33ce1461017d5780634a93e0da146101a7575b34801561011557600080fd5b50600080fd5b34801561012757600080fd5b506101306105d6565b60408051918252519081900360200190f35b34801561014e57600080fd5b5061017b6004803603604081101561016557600080fd5b506001600160a01b0381351690602001356105dc565b005b34801561018957600080fd5b5061017b600480360360208110156101a057600080fd5b5035610713565b3480156101b357600080fd5b506101d1600480360360208110156101ca57600080fd5b50356108a2565b604080519115158252519081900360200190f35b3480156101f157600080fd5b506101306004803603604081101561020857600080fd5b506001600160a01b03813581169160200135166108b7565b34801561022c57600080fd5b506101306004803603604081101561024357600080fd5b506001600160a01b0381358116916020013516610981565b34801561026757600080fd5b5061017b6004803603602081101561027e57600080fd5b503561099e565b34801561029157600080fd5b5061017b600480360360208110156102a857600080fd5b50356001600160a01b0316610a64565b3480156102c457600080fd5b506102cd610a9b565b604080516001600160a01b039092168252519081900360200190f35b3480156102f557600080fd5b5061017b6004803603602081101561030c57600080fd5b5035610aaa565b34801561031f57600080fd5b50610130610b30565b34801561033457600080fd5b506102cd6004803603608081101561034b57600080fd5b6001600160a01b03823516919081019060408101602082013564010000000081111561037657600080fd5b82018360208201111561038857600080fd5b803590602001918460018302840111640100000000831117156103aa57600080fd5b91908080601f01602080910402602001604051908101604052809392919081815260200183838082843760009201919091525092959493602081019350359150506401000000008111156103fd57600080fd5b82018360208201111561040f57600080fd5b8035906020019184600183028401116401000000008311171561043157600080fd5b91908080601f0160208091040260200160405190810160405280939291908181526020018383808284376000920191909152509295505050903560ff169150610b369050565b61017b610c59565b34801561048b57600080fd5b5061017b600480360360808110156104a257600080fd5b506001600160a01b0381358116916020810135916040820135169060600135610ce7565b3480156104d257600080fd5b5061017b600480360360408110156104e957600080fd5b506001600160a01b038135169060200135610ed2565b34801561050b57600080fd5b506105296004803603602081101561052257600080fd5b5035610fd2565b604080519788526001600160a01b0396871660208901529486168786015260608701939093529316608085015260a084019290925260c0830191909152519081900360e00190f35b34801561057d57600080fd5b506101d16004803603602081101561059457600080fd5b503561101e565b3480156105a757600080fd5b50610130600480360360408110156105be57600080fd5b506001600160a01b0381358116916020013516611033565b60045481565b6001600160a01b0382166105ef57600080fd5b604080516323b872dd60e01b81523360048201523060248201526044810183905290516001600160a01b038416916323b872dd9160648083019260209291908290030181600087803b15801561064457600080fd5b505af1158015610658573d6000803e3d6000fd5b505050506040513d602081101561066e57600080fd5b505161067957600080fd5b6001600160a01b03821660009081526002602090815260408083203384529091529020546106ad908263ffffffff61105e16565b6001600160a01b03831660008181526002602090815260408083203380855290835292819020859055805186815291820194909452835191937fdcbc1c05240f31ff3ad067ef1ee35ce4997762752e3a095284754544f4c709d792918290030190a35050565b33600090815260008051602061154b833981519152602052604090205481111561076e5760405162461bcd60e51b815260040180806020018281038252602981526020018061158c6029913960400191505060405180910390fd5b6107796000336108b7565b61079482610788600033611033565b9063ffffffff6110bf16565b10156107d15760405162461bcd60e51b81526004018080602001828103825260388152602001806115b56038913960400191505060405180910390fd5b33600090815260008051602061154b83398151915260205260409020546107fe908263ffffffff6110bf16565b33600081815260008051602061154b8339815191526020526040808220939093559151909183156108fc02918491818181858888f19350505050158015610849573d6000803e3d6000fd5b5033600081815260008051602061154b833981519152602090815260408083205481518681529283015280517ff341246adaac6f497bc2a656f546ab9e182111d630394f0c57c710a59a2cb5679281900390910190a350565b60066020526000908152604090205460ff1681565b60008060015b6004548111610977576000818152600360205260409020600101546001600160a01b03858116911614801561090e57506000818152600360205260409020600401546001600160a01b038681169116145b8015610929575060008181526005602052604090205460ff16155b8015610944575060008181526006602052604090205460ff16155b1561096f5760008181526003602052604090206005015461096c90839063ffffffff61105e16565b91505b6001016108bd565b5090505b92915050565b600260209081526000928352604080842090915290825290205481565b600081815260036020526040902060018101546001600160a01b031633146109c557600080fd5b600082815260056020818152604092839020805460ff191660019081179091556004850154600286015486549287015460038801549588015487519485526001600160a01b039182169585019590955283870195909552606083019390935242608083015293519383169391909216917f77de1da0be5f2d3b110d05c6694e5c4ff2d9da7cd23d84353ecf78c7b5acec61919081900360a00190a35050565b6040516001600160a01b038216907f4c910b69fe65a61f7531b9c5042b2329ca7179c77290aa7e2eb3afa3c8511fd390600090a250565b6000546001600160a01b031681565b600081118015610abc57506004548111155b610ac557600080fd5b60008181526005602052604090205460ff1615610ae157600080fd5b60008181526006602052604090205460ff1615610afd57600080fd5b6000818152600360205260409020610b1481611101565b506000908152600660205260409020805460ff19166001179055565b60015481565b6000846001600160a01b03167f86af02581649a58dead45b4dce5cd237cee12c6cb5d9d7e9990bd98d93ba4eb08585856040518080602001806020018460ff1660ff168152602001838103835286818151815260200191508051906020019080838360005b83811015610bb3578181015183820152602001610b9b565b50505050905090810190601f168015610be05780820380516001836020036101000a031916815260200191505b50838103825285518152855160209182019187019080838360005b83811015610c13578181015183820152602001610bfb565b50505050905090810190601f168015610c405780820380516001836020036101000a031916815260200191505b509550505050505060405180910390a250929392505050565b33600090815260008051602061154b8339815191526020526040902054610c86903463ffffffff61105e16565b33600081815260008051602061154b833981519152602090815260408083208590558051348152918201949094528351929391927fdcbc1c05240f31ff3ad067ef1ee35ce4997762752e3a095284754544f4c709d7929181900390910190a3565b610cf18233611033565b610d0b82610cff85336108b7565b9063ffffffff61105e16565b1115610d1657600080fd5b600454610d2a90600163ffffffff61105e16565b60048190555060004290506040518060e001604052806004548152602001336001600160a01b03168152602001866001600160a01b03168152602001858152602001846001600160a01b03168152602001838152602001828152506003600060045481526020019081526020016000206000820151816000015560208201518160010160006101000a8154816001600160a01b0302191690836001600160a01b0316021790555060408201518160020160006101000a8154816001600160a01b0302191690836001600160a01b031602179055506060820151816003015560808201518160040160006101000a8154816001600160a01b0302191690836001600160a01b0316021790555060a0820151816005015560c08201518160060155905050826001600160a01b0316856001600160a01b03167f9d33853d43e3607b4cc01fdc78338ff2dca6fef7db9232dae6d3eb55fbc3b1096004543388878760405180868152602001856001600160a01b03166001600160a01b031681526020018481526020018381526020018281526020019550505050505060405180910390a35050505050565b6001600160a01b038216610ee557600080fd5b6001600160a01b0382166000908152600260209081526040808320338452909152902054811115610f1557600080fd5b610f1f82336108b7565b610f2d826107888533611033565b1015610f3857600080fd5b6001600160a01b0382166000908152600260209081526040808320338452909152902054610f6c908263ffffffff6110bf16565b6001600160a01b03831660008181526002602090815260408083203380855290835292819020859055805186815291820194909452835191937ff341246adaac6f497bc2a656f546ab9e182111d630394f0c57c710a59a2cb56792918290030190a35050565b6003602081905260009182526040909120805460018201546002830154938301546004840154600585015460069095015493956001600160a01b03938416959084169492939091169187565b60056020526000908152604090205460ff1681565b6001600160a01b03918216600090815260026020908152604080832093909416825291909152205490565b6000828201838110156110b8576040805162461bcd60e51b815260206004820152601b60248201527f536166654d6174683a206164646974696f6e206f766572666c6f770000000000604482015290519081900360640190fd5b9392505050565b60006110b883836040518060400160405280601e81526020017f536166654d6174683a207375627472616374696f6e206f766572666c6f7700008152506113b3565b600061113e6064611132611121606460015461144a90919063ffffffff16565b60038601549063ffffffff61148c16565b9063ffffffff61144a16565b905061118c61115a82846003015461105e90919063ffffffff16565b6002848101546001600160a01b031660009081526020918252604080822033835290925220549063ffffffff6110bf16565b600283810180546001600160a01b039081166000908152602084815260408083203384528252808320969096556003880154935483168252938452848120600188015490921681529252919020546111e99163ffffffff61105e16565b600283810180546001600160a01b0390811660009081526020848152604080832060018a0154851684528252808320969096559254821681529282528383208354909116835290522054611243908263ffffffff61105e16565b6002838101546001600160a01b039081166000908152602083815260408083208354851684528252808320959095556005870154600488015484168352938152848220600188015490931682529190915291909120546112a89163ffffffff6110bf16565b6004830180546001600160a01b03908116600090815260026020818152604080842060018a015486168552825280842096909655600588015494549093168252825283812033825290915291909120546113079163ffffffff61105e16565b6004830180546001600160a01b0390811660009081526002602081815260408084203380865290835293819020969096559354908701548754600189015460038a015460058b015489519384529187169783019790975281880196909652606081019590955260808501929092524260a08501529351938216939116917f0dddf4182dc0fc1a311cb75f049c97403c6b8a99cf6b2229a36e7c526acb3f81919081900360c00190a35050565b600081848411156114425760405162461bcd60e51b81526004018080602001828103825283818151815260200191508051906020019080838360005b838110156114075781810151838201526020016113ef565b50505050905090810190601f1680156114345780820380516001836020036101000a031916815260200191505b509250505060405180910390fd5b505050900390565b60006110b883836040518060400160405280601a81526020017f536166654d6174683a206469766973696f6e206279207a65726f0000000000008152506114e5565b60008261149b5750600061097b565b828202828482816114a857fe5b04146110b85760405162461bcd60e51b815260040180806020018281038252602181526020018061156b6021913960400191505060405180910390fd5b600081836115345760405162461bcd60e51b81526020600482018181528351602484015283519092839260449091019190850190808383600083156114075781810151838201526020016113ef565b50600083858161154057fe5b049594505050505056feac33ff75c19e70fe83507db0d683fd3465c996598dc972688b7ace676c89077b536166654d6174683a206d756c7469706c69636174696f6e206f766572666c6f77596f7520646f6e2774206861766520656e6f7567682045544820696e207468652065786368616e6765596f752063616e2774207769746864726177206d6f7265207468616e206c6f636b656420696e746f206578697374696e67206f7264657273a265627a7a723158209ff3f4c74c230e1d71f3db5b4ceb119b356bfb95d566ae2cd7293268c1b7fc7f64736f6c63430005100032",
  "source": "pragma solidity ^0.5.0;\n\nimport \"@openzeppelin/contracts/math/SafeMath.sol\";\nimport \"@openzeppelin/contracts/token/ERC20/ERC20.sol\";\n\ncontract Exchange {\n\tusing SafeMath for uint;\n\n\taddress public feeAccount; // account that will receive trading fees\n\tuint256 public feePercent; // fee percentage in unit of 100, i.e. 100 == 1% and 5 == 0.05% and 10000 == 100%\n\taddress constant ETHER = address(0); // allows storage of ether in blank address in token mapping\n\n\tmapping(address => mapping(address => uint256)) public tokens;\n\tmapping(uint256 => _Order) public orders;\n\tuint256 public orderCount;\n\tmapping(uint256 => bool) public orderCancelled;\n\tmapping(uint256 => bool) public orderFilled;\n\n\tstruct _Order {\n\t\tuint256 id;\n\t\taddress user;\n\t\taddress tokenGet;\n\t\tuint256 amountGet;\n\t\taddress tokenGive;\n\t\tuint256 amountGive;\n\t\tuint256 timestamp;\n\t}\n\t\n\tevent TokenAdded(address indexed tokenAddress, string name, string symbol, uint8 decimals);\n\tevent TokenRemoved(address indexed tokenAddress);\n\tevent Deposit(address indexed token, address indexed user, uint256 amount, uint256 balance);\n\tevent Withdraw(address indexed token, address indexed user, uint256 amount, uint256 balance);\n\tevent Order(uint256 id, address user, address indexed tokenGet, uint256 amountGet, address indexed tokenGive, uint256 amountGive, uint256 timestamp);\n\tevent Cancel(uint256 id, address user, address indexed tokenGet, uint256 amountGet, address indexed tokenGive, uint256 amountGive, uint256 timestamp);\n\tevent Trade(uint256 id, address user, address indexed tokenGet, uint256 amountGet, address indexed tokenGive, uint256 amountGive, address userFill, uint256 timestamp);\n\t\n\tconstructor (address _feeAccount, uint256 _feePercent) public {\n\t\tfeeAccount = _feeAccount;\n\t\tfeePercent = _feePercent;\n\t}\n\n\t// reverts if ether is sent directly to exchange\n\tfunction() external {\n\t\trevert();\n\t}\n\n\tfunction addToken(address _tokenAddress, string memory _name, string memory _symbol, uint8 _decimals) public returns (address tokenAddress) {\n\t\temit TokenAdded(_tokenAddress, _name, _symbol, _decimals);\n\t\treturn _tokenAddress;\n\t}\n\n\tfunction removeToken(address _tokenAddress) public {\n\t\temit TokenRemoved(_tokenAddress);\n\t}\n\n\tfunction depositEther() payable public {\n\t\ttokens[ETHER][msg.sender] = tokens[ETHER][msg.sender].add(msg.value);\n\t\temit Deposit(ETHER, msg.sender, msg.value, tokens[ETHER][msg.sender]);\n\t}\n\n\tfunction withdrawEther(uint256 _amount) public {\n\t\t// if (tokens[ETHER][msg.sender] < _amount) {\n\t\t// \trevert(\"You don't have enough ETH in the exchange\");\n\t\t// }\n\t\trequire(tokens[ETHER][msg.sender] >= _amount, \"You don't have enough ETH in the exchange\");\n\t\trequire(balanceOf(ETHER, msg.sender).sub(_amount) >= orderTotal(ETHER, msg.sender), \"You can't withdraw more than locked into existing orders\");\n\t\ttokens[ETHER][msg.sender] = tokens[ETHER][msg.sender].sub(_amount);\n\t\tmsg.sender.transfer(_amount);\n\t\temit Withdraw(ETHER, msg.sender, _amount, tokens[ETHER][msg.sender]);\n\t}\n\n\tfunction depositToken(address _token, uint256 _amount) public {\n\t\trequire(_token != ETHER);\n\t\trequire(ERC20(_token).transferFrom(msg.sender, address(this), _amount));\n\t\ttokens[_token][msg.sender] = tokens[_token][msg.sender].add(_amount);\n\t\temit Deposit(_token, msg.sender, _amount, tokens[_token][msg.sender]);\n\t}\n\n\tfunction withdrawToken(address _token, uint256 _amount) public {\n\t\trequire(_token != ETHER);\n\t\trequire(tokens[_token][msg.sender] >= _amount);\n\t\trequire(balanceOf(_token, msg.sender).sub(_amount) >= orderTotal(_token, msg.sender));\n\t\ttokens[_token][msg.sender] = tokens[_token][msg.sender].sub(_amount);\n\t\temit Withdraw(_token, msg.sender, _amount, tokens[_token][msg.sender]);\n\t}\n\n\tfunction balanceOf(address _token, address _user) public view returns (uint256) {\n\t\treturn tokens[_token][_user];\n\t}\n\n\tfunction orderTotal(address _token, address _user) public view returns (uint256) {\n\n\t\tuint256 _orderTotal;\n\n\t\tfor (uint256 i = 1; i <= orderCount; i++) {\n\t\t\tif (orders[i].user == _user && orders[i].tokenGive == _token && !orderCancelled[i] && !orderFilled[i]) {\n\t\t\t\t_orderTotal = _orderTotal.add(orders[i].amountGive);\n\t\t\t}\n\t\t}\n\n\t\treturn _orderTotal;\n\t}\n\n\tfunction makeOrder(\n\t\taddress _tokenGet,\n\t\tuint256 _amountGet,\n\t\taddress _tokenGive,\n\t\tuint256 _amountGive) public {\n\n\t\trequire(orderTotal(_tokenGive, msg.sender).add(_amountGive) <= balanceOf(_tokenGive, msg.sender));\n\n\t\torderCount = orderCount.add(1);\n\t\tuint256 _timestamp = now;\n\n\t\torders[orderCount] = _Order(\n\t\t\torderCount, \n\t\t\tmsg.sender, \n\t\t\t_tokenGet, \n\t\t\t_amountGet, \n\t\t\t_tokenGive, \n\t\t\t_amountGive,\n\t\t\t_timestamp);\n\n\t\temit Order(\n\t\t\torderCount, \n\t\t\tmsg.sender, \n\t\t\t_tokenGet, \n\t\t\t_amountGet, \n\t\t\t_tokenGive, \n\t\t\t_amountGive,\n\t\t\t_timestamp);\n\t}\n\n\tfunction cancelOrder(uint256 _id) public {\n\n\t\t_Order storage _order = orders[_id];\n\t\trequire(address(_order.user) == msg.sender);\n\n\t\torderCancelled[_id] = true;\n\n\t\temit Cancel(\n\t\t\t_order.id, \n\t\t\t_order.user, \n\t\t\t_order.tokenGet, \n\t\t\t_order.amountGet, \n\t\t\t_order.tokenGive, \n\t\t\t_order.amountGive,\n\t\t\tnow);\n\t}\n\n\tfunction fillOrder(uint256 _id) public {\n\t\trequire(_id > 0 && _id <= orderCount);\n\t\trequire(!orderCancelled[_id]);\n\t\trequire(!orderFilled[_id]);\n\n\t\t_Order storage _order = orders[_id];\n\t\t_trade(_order);\n\t\torderFilled[_id] = true;\n\t}\n\n\tfunction _trade(_Order storage _order) internal {\n\t\tuint256 _feeAmount = _order.amountGet.mul((feePercent.div(100))).div(100);\n\n\t\ttokens[_order.tokenGet][msg.sender] = tokens[_order.tokenGet][msg.sender].sub(_order.amountGet.add(_feeAmount));\n\t\ttokens[_order.tokenGet][_order.user] = tokens[_order.tokenGet][_order.user].add(_order.amountGet);\n\t\ttokens[_order.tokenGet][feeAccount] = tokens[_order.tokenGet][feeAccount].add(_feeAmount);\n\t\ttokens[_order.tokenGive][_order.user] = tokens[_order.tokenGive][_order.user].sub(_order.amountGive);\n\t\ttokens[_order.tokenGive][msg.sender] = tokens[_order.tokenGive][msg.sender].add(_order.amountGive);\n\n\t\temit Trade(_order.id, _order.user, _order.tokenGet, _order.amountGet, _order.tokenGive, _order.amountGive, msg.sender, now);\n\t}\n}",
  "sourcePath": "/Users/jaco/dev/workspace/ethereum/exchange/src/contracts/Exchange.sol",
  "compiler": {
    "name": "solc",
    "version": "0.5.16+commit.9c3226ce.Emscripten.clang"
  },
  "schemaVersion": "3.0.23",
  "updatedAt": "2020-04-09T09:30:52.686Z",
  "networkType": "ethereum",
  "devdoc": {
    "methods": {}
  },
  "userdoc": {
    "methods": {}
  }
}